:100000000C943A000C944F000C944F000C944F0049
:100010000C944F000C944F000C944F000C944F0024
:100020000C944F000C944F000C944F000C944F0014
:100030000C944F000C944F000C944F000C944F0004
:100040000C944F000C944F000C944F000C944F00F4
:100050000C944F005C007A005E0060006200640057
:10006000660068006A006C006E0070007200740028
:100070007600780011241FBECFE5D4E0DEBFCDBFEF
:1000800010E0A0E6B0E0E8E1F4E002C005900D92D7
:10009000AA36B107D9F70E949F010C940A020C946A
:1000A0000000482F50E0FA013197E031F10518F5D2
:1000B000E65DFF4F0C94C40187E0089589E0089540
:1000C00085E2089584E0089585E0089586E0089526
:1000D0008AE2089581E0089582E0089583E008951A
:1000E0008DE208958DE0089580E008958DE30895F0
:1000F0008BE2089588E0089580E022C020E130E09E
:10010000082E02C0220F331F0A94E2F72ABB209563
:100110002BBB90E012C029B330E0092E02C0359508
:1001200027950A94E2F720FD07C0990F990F890FD0
:100130008F5F0E94510008959F5F943060F38F5F3E
:100140008430E0F2D9CF98B39D7F98BB98B39B7F62
:1001500098BBE9EFF0E03197F1F700C0000098B3E9
:10016000986098BBE9EFF0E03197F1F700C000002C
:1001700092B3282F22952F70907F922B92BBE9EF9C
:10018000F0E03197F1F700C0000098B3977F98BB7B
:10019000E9EFF0E03197F1F700C0000098B3986004
:1001A00098BBE9EFF0E03197F1F700C0000092B39F
:1001B000907F8F70892B82BB89EF90E00197F1F7D8
:1001C00000C0000088B3877F88BBE9EFF0E031977B
:1001D000F1F700C00000089587B38E6087BB81B33C
:1001E0008F6081BB82E00E94A30088E20E94A3008E
:1001F0008CE00E94A30081E00E94A300089598B3C0
:10020000926098BB98B39B7F98BBE9EFF0E0319781
:10021000F1F700C0000098B3986098BBE9EFF0E0F8
:100220003197F1F700C0000092B3282F22952F706C
:10023000907F922B92BBE9EFF0E03197F1F700C08D
:10024000000098B3977F98BBE9EFF0E03197F1F7A2
:1002500000C0000098B3986098BBE9EFF0E03197D8
:10026000F1F700C0000092B3907F8F70892B82BBA2
:1002700089EF90E00197F1F700C0000088B3877F15
:1002800088BBE9EFF0E03197F1F700C00000089576
:100290000F931F93CF938C01C0E003C00E94FF0017
:1002A000CF5FF801EC0FF11D80818111F7CFCF9165
:1002B0001F910F910895813031F070F0823031F04C
:1002C000833039F00AC090E4960F07C090E1960F92
:1002D00004C090E5960F01C0962F892F80680E9478
:1002E000A3000895CF93DF93EA010E945B01CE0142
:1002F0000E944801DF91CF910895CF93DF93CDB74E
:10030000DEB760970FB6F894DEBF0FBECDBF4AE0F0
:1003100050E0BE016F5F7F4F0E94CA01CE0101967F
:100320000E94480160960FB6F894DEBF0FBECDBFA5
:10033000DF91CF91089581E00E94A30008950E946B
:10034000EC0040E650E060E080E00E94720160E076
:1003500082E00E945B010E947C008A3020F490E0E1
:100360000E947D0107C08D3019F40E949B0102C0DC
:100370000E94FF002FE986E891E0215080409040E4
:10038000E1F700C00000E7CFEE0FFF1F0590F491EA
:10039000E02D09944532510520F4423010F00C94C0
:1003A000D501FB011082CB010895BB274A3031F4FF
:1003B000992322F4BDE2909581959F4F0C94E10121
:1003C000BB27FB015527AA27880F991FAA1FA4172F
:1003D00010F0A41B83955051B9F7A05DAA3308F023
:1003E000A95DA193009779F7B111B1931192CB0157
:1003F0000C94FA01DC01FC01672F71917723E1F77E
:10040000329704C07C916D9370836291AE17BF07E1
:08041000C8F30895F894FFCF32
:0A04180048656C6C6F205E5E00000A
:00000001FF
