:100000000C942A000C9436000C9434000C943400A8
:100010000C9434000C9434000C9434000C94340090
:100020000C9434000C9434000C9434000C94340080
:100030000C9434000C9434000C9434000C94340070
:100040000C9434000C9434000C9434000C94340060
:100050000C94340011241FBECFE5D4E0DEBFCDBF29
:100060000E9458000C9461000C9400001F920F92A3
:100070000FB60F9211248F939F9395B381E0892738
:1000800085BB9F918F910F900FBE0F901F90189579
:100090008FB78F778FBF81B38B7F81BB8BB7806426
:1000A0008BBF85B7836085BF8FB780688FBF08958A
:1000B0000E94480084B3816084BB85B3816085BBA6
:0600C000FFCFF894FFCF12
:00000001FF
