:100000000C942A000C943C000C943E000C943C0090
:100010000C943C000C943C000C943C000C943C0070
:100020000C943C000C943C000C943C000C943C0060
:100030000C943C000C943C000C943C000C943C0050
:100040000C943C000C943C000C943C000C943C0040
:100050000C943C0011241FBECFE5D4E0DEBFCDBF21
:1000600020E0A0E6B0E001C01D92A136B207E1F7A2
:100070000E9463000C949D000C9400001F920F924C
:100080000FB60F9211248F9381E0809360008F91BF
:100090000F900FBE0F901F9018958FB78F778FBF5F
:1000A00081B3877F81BB82B3886082BB8BB7806856
:1000B0008BBF85B7886085BF85B78B7F85BF8FB7BE
:1000C00080688FBF08950E944D008FEF84BB81E050
:1000D00085BB21E001C021E08091600081110DC04D
:1000E0003FE946E881E0315040408040E1F700C000
:1000F000000025BB220F79F3EFCF813069F717C0DD
:100100009FEF95BB9FE936E841E091503040404079
:10011000E1F700C0000015BA9FE936E841E09150D0
:1001200030404040E1F700C000008F5F01C080E038
:0E013000853030F310926000CFCFF894FFCFEF
:00000001FF
