:100000000C942A000C9434000C9434000C943400AA
:100010000C9434000C9434000C9434000C94340090
:100020000C9434000C9434000C9434000C94340080
:100030000C9434000C9434000C9434000C94340070
:100040000C9434000C9434000C9434000C94340060
:100050000C94340011241FBECFE5D4E0DEBFCDBF29
:100060000E943E000C9460000C94000012BE8CBFF5
:1000700087B3886087BB8AE683BF0895C0E00AC063
:100080008C2F0E94360083EC99E00197F1F700C0B5
:100090000000CF5FCF3FA1F787EA91E60197F1F724
:1000A00000C000000AC08C2F0E94360083EC99E04B
:1000B0000197F1F700C00000C150C111F4CFDECFAD
:0400C000F894FFCFE2
:00000001FF
