S0120000454550524F4D5F4932432E737265632D
S11300000C943A000C944F000C944F000C944F0045
S11300100C944F000C944F000C944F000C944F0020
S11300200C944F000C944F000C944F000C944F0010
S11300300C944F000C944F000C944F000C944F0000
S11300400C944F000C944F000C944F000C944F00F0
S11300500C944F00090127010B010D010F0111013F
S113006013011501170119011B011D011F012101B4
S11300702301250111241FBECFE5D4E0DEBFCDBF8F
S113008010E0A0E6B0E0E6EDF5E002C005900D92C8
S1130090AA36B107D9F70E944C020C94E9020C94D9
S11300A000000E94DD0008951F93CF93DF93EC01BD
S11300B0162F0E94E4000E94FB00883009F5CE014F
S11300C088279770880F892F881F990B9195806ACC
S11300D00E94ED000E94FB008831A1F48C2F0E9445
S11300E0ED000E94FB00883279F4812F0E94ED001C
S11300F00E94FB00883251F40E94EA0081E007C0AC
S113010080E005C080E003C080E001C080E0DF91B2
S1130110CF911F910895EF92FF920F931F93CF9366
S1130120DF93EC018B010E94E4000E94FB00883005
S113013091F57E01EE2487E0F822EE0CEF2CEE1C04
S1130140FF08F1948E2D806A0E94ED000E94FB004E
S1130150883119F58C2F0E94ED000E94FB00883233
S1130160F1F40E94E4000E94FB008031D1F48E2D52
S1130170816A0E94ED000E94FB008034A1F40E9479
S1130180F400F80180830E94FB00883571F40E941A
S1130190EA0081E00BC080E009C080E007C080E095
S11301A005C080E003C080E001C080E0DF91CF9112
S11301B01F910F91FF90EF90089582E080B911B8DC
S11301C082B984E086BF089584EA86BF06B607FE36
S11301D0FDCF089584E986BF089583B984E886BF76
S11301E006B607FEFDCF089584E886BF06B607FE6F
S11301F0FDCF83B1089581B1887F0895482F50E0E1
S1130200FA013197E031F10518F5E65DFF4F0C94E2
S1130210A30287E0089589E0089585E2089584E0C3
S1130220089585E0089586E008958AE2089581E0BE
S1130230089582E0089583E008958DE208958DE0A5
S1130240089580E008958DE308958BE2089588E091
S1130250089580E022C020E130E0082E02C0220F81
S1130260331F0A94E2F72ABB20952BBB90E012C0FF
S113027029B330E0092E02C0359527950A94E2F798
S113028020FD07C0990F990F890F8F5F0E94FE0010
S113029008959F5F943060F38F5F8430E0F2D9CF8C
S11302A098B39D7F98BB98B39B7F98BBE9EFF0E030
S11302B03197F1F700C0000098B3986098BBE9EF5C
S11302C0F0E03197F1F700C0000092B3282F229597
S11302D02F70907F922B92BBE9EFF0E03197F1F70A
S11302E000C0000098B3977F98BBE9EFF0E0319726
S11302F0F1F700C0000098B3986098BBE9EFF0E014
S11303003197F1F700C0000092B3907F8F70892B72
S113031082BB89EF90E00197F1F700C0000088B339
S1130320877F88BBE9EFF0E03197F1F700C0000068
S1130330089587B38E6087BB81B38F6081BB82E0F1
S11303400E94500188E20E9450018CE00E945001FA
S113035081E00E945001089598B3926098BB98B3CD
S11303609B7F98BBE9EFF0E03197F1F700C0000004
S113037098B3986098BBE9EFF0E03197F1F700C0CB
S1130380000092B3282F22952F70907F922B92BB5E
S1130390E9EFF0E03197F1F700C0000098B3977FE0
S11303A098BBE9EFF0E03197F1F700C0000098B393
S11303B0986098BBE9EFF0E03197F1F700C00000D6
S11303C092B3907F8F70892B82BB89EF90E0019765
S11303D0F1F700C0000088B3877F88BBE9EFF0E045
S11303E03197F1F700C0000008950F931F93CF9346
S11303F08C01C0E003C00E94AC01CF5FF801EC0F98
S1130400F11D80818111F7CFCF911F910F91089534
S1130410813031F070F0823031F0833039F00AC02D
S113042090E4960F07C090E1960F04C090E5960FF4
S113043001C0962F892F80680E9450010895CF93A0
S1130440DF93EA010E940802CE010E94F501DF91C8
S1130450CF910895CF93DF93CDB7DEB760970FB6F2
S1130460F894DEBF0FBECDBF4AE050E0BE016F5F1F
S11304707F4F0E94A902CE0101960E94F501609669
S11304800FB6F894DEBF0FBECDBFDF91CF910895B4
S113049081E00E9450010895CF93DF9300D0CDB73F
S11304A0DEB781E08A830E94990140E650E060E073
S11304B080E00E941F020E9451000E94290189834A
S11304C08A3080F4682F81E193E00E945400BE01D9
S11304D06F5F7F4F81E193E00E948B0090E00E9468
S11304E02A0227C08D30B1F40E9448022FE986E821
S11304F091E0215080409040E1F700C00000BE012F
S11305006E5F7F4F81E193E00E948B0090E00E9438
S11305102A020FC0682F81E193E00E945400BE01BB
S11305206F5F7F4F81E193E00E948B0090E00E9417
S11305302A022FE986E891E0215080409040E1F7BB
S113054000C00000BACFEE0FFF1F0590F491E02D1C
S113055009944532510520F4423010F00C94B40251
S1130560FB011082CB010895BB274A3031F4992353
S113057022F4BDE2909581959F4F0C94C002BB2755
S1130580FB015527AA27880F991FAA1FA41710F04B
S1130590A41B83955051B9F7A05DAA3308F0A95D57
S11305A0A193009779F7B111B1931192CB010C94F7
S11305B0D902DC01FC01672F71917723E1F73297AF
S11305C004C07C916D9370836291AE17BF07C8F32A
S10905D00895F894FFCF2A
S10D05D648656C6C6F205E5E000047
S9030000FC
