:100000000C942A000C9434000C9434000C943400AA
:100010000C9434000C9434000C9434000C94340090
:100020000C9434000C9434000C9434000C94340080
:100030000C9434000C9434000C9434000C94340070
:100040000C9434000C9434000C9434000C94340060
:100050000C94340011241FBECFE5D4E0DEBFCDBF29
:100060000E9439000C944E000C9400008FE081BD7A
:1000700008950E94360081B3806481BB82B380649E
:1000800082BB2FE38DE093E0215080409040E1F768
:1000900000C0000082B38F7B82BBFFCFF894FFCFFC
:00000001FF
