S00C00006D61696E2E7372656373
S11300000C942A000C943F000C943F000C943F0085
S11300100C943F000C943F000C943F000C943F0060
S11300200C943F000C943F000C943F000C943F0050
S11300300C943F000C943F000C943F000C943F0040
S11300400C943F000C943F000C943F000C943F0030
S11300500C943F0011241FBECFE5D4E0DEBFCDBF1A
S113006010E0A0E6B0E0E2E5F5E002C005900D92F4
S1130070A836B107D9F70E94FE000C94A7020C948D
S1130080000017B883E886B90895877097B1907E09
S113009097B997B1892B87B986B1806486B9349BA7
S11300A0FECF86B1806186B984B195B1089592B3CB
S11300B09F7E92BB92B39F7D92BBE9EFF0E03197B4
S11300C0F1F700C0000092B3906492BBE9EFF0E056
S11300D03197F1F700C0000085BB89EF90E00197EC
S11300E0F1F700C0000082B38F7B82BBE9EFF0E040
S11300F03197F1F700C0000008958FEF84BB81B3FE
S1130100806781BB88E30E9457008CE00E945700FF
S113011081E00E945700089592B3906192BB92B31C
S11301209F7D92BBE9EFF0E03197F1F700C000004A
S113013092B3906492BBE9EFF0E03197F1F700C01D
S1130140000085BB89EF90E00197F1F700C0000043
S113015082B38F7B82BBE9EFF0E03197F1F700C007
S1130160000008950F931F93CF938C01C0E003C048
S11301700E948C00CF5FF801EC0FF11D808181118A
S1130180F7CFCF911F910F910895813031F070F026
S1130190823031F0833039F00AC090E4960F07C002
S11301A090E1960F04C090E5960F01C0962F892F19
S11301B080680E9457000895CF93DF93CDB7DEB7D0
S11301C060970FB6F894DEBF0FBECDBF4AE050E093
S11301D0BE016F5F7F4F0E946702CE0101960E94AD
S11301E0B20060960FB6F894DEBF0FBECDBFDF91AC
S11301F0CF91089581E00E94570008950E947D00E8
S11302000E9441000E94FA0080E690E00E94B20041
S11302106AE080E00E94C50083E40E948C0067E0ED
S113022080E00E94C50082E00E9445009C01AEEE81
S1130230B2E00E9458020E94CA0120E030ED4FEB68
S113024054E40E9429010E949B01CB010E94DC001E
S1130250E6CF0E943D010C941E020E94170258F042
S11302600E94100240F029F45F3F29F00C94070229
S113027051110C9452020C940D020E942F0268F347
S11302809923B1F3552391F3951B550BBB27AA274B
S113029062177307840738F09F5F5F4F220F331F85
S11302A0441FAA1FA9F335D00E2E3AF0E0E832D04D
S11302B091505040E695001CCAF72BD0FE2F29D050
S11302C0660F771F881FBB1F261737074807AB0722
S11302D0B0E809F0BB0B802DBF01FF2793585F4F97
S11302E03AF09E3F510578F00C9407020C945202A8
S11302F05F3FE4F3983ED4F3869577956795B79579
S1130300F7959F5FC9F7880F911D9695879597F983
S11303100895E1E0660F771F881FBB1F62177307FC
S11303208407BA0720F0621B730B840BBA0BEE1F11
S113033088F7E09508950E94370288F09F5798F057
S1130340B92F9927B751B0F0E1F0660F771F881FD6
S1130350991F1AF0BA95C9F714C0B13091F00E94F0
S11303605102B1E008950C945102672F782F882729
S1130370B85F39F0B93FCCF3869577956795B39517
S1130380D9F73EF490958095709561957F4F8F4F86
S11303909F4F0895E89409C097FB3EF4909580958B
S11303A0709561957F4F8F4F9F4F9923A9F0F92F37
S11303B096E9BB279395F695879577956795B795B5
S11303C0F111F8CFFAF4BB0F11F460FF1BC06F5F9B
S11303D07F4F8F4F9F4F16C0882311F096E911C0AD
S11303E0772321F09EE8872F762F05C0662371F0CE
S11303F096E8862F70E060E02AF09A95660F771FE2
S1130400881FDAF7880F9695879597F9089597F9D5
S11304109F6780E870E060E008959FEF80EC0895A6
S113042000240A94161617061806090608950024CF
S11304300A9412161306140605060895092E039449
S1130440000C11F4882352F0BB0F40F4BF2B11F4BD
S113045060FF04C06F5F7F4F8F4F9F4F089557FD1C
S11304609058440F551F59F05F3F71F04795880F1E
S113047097FB991F61F09F3F79F0879508951216B5
S113048013061406551FF2CF4695F1DF08C0161661
S113049017061806991FF1CF869571056105089412
S11304A00895E894BB2766277727CB0197F9089529
S11304B0A29FB001B39FC001A39F700D811D1124A1
S11304C0911DB29F700D811D1124911D0895453217
S11304D0510520F4423010F00C947202FB0110829A
S11304E0CB010895BB274A3031F4992322F4BDE2AD
S11304F0909581959F4F0C947E02BB27FB01552755
S1130500AA27880F991FAA1FA41710F0A41B83956C
S11305105051B9F7A05DAA3308F0A95DA1930097E3
S113052079F7B111B1931192CB010C949702DC01CC
S1130530FC01672F71917723E1F7329704C07C9116
S11305406D9370836291AE17BF07C8F30895F89452
S1050550FFCFD7
S10B055254656D70203D20008A
S9030000FC
