S00B00004D43322E7372656357
S11300000C942A000C9434000C9434000C943400A6
S11300100C9434000C9434000C9434000C9434008C
S11300200C9434000C9434000C9434000C9434007C
S11300300C9434000C9434000C9434000C9434006C
S11300400C9434000C9434000C9434000C9434005C
S11300500C94340011241FBECFE5D4E0DEBFCDBF25
S11300600E9436000C9454000C9400008FEF84BB63
S113007015BA0E9446000E94500021E030E002C000
S1130080220F331F8A95E2F725BBF5CF82E08BB9A7
S113009088E18AB986E880BD10BC8CE089B90895EE
S10F00A05F9BFECF8CB10895F894FFCF55
S9030000FC
