:100000000C942A000C943C000C943C000C943C0092
:100010000C943C000C943C000C943C000C943C0070
:100020000C943C000C943C000C943C000C943C0060
:100030000C943C000C943C000C943C000C943C0050
:100040000C943C000C943C000C943E000C943C003E
:100050000C943C0011241FBECFE5D4E0DEBFCDBF21
:1000600020E0A0E6B0E001C01D92A136B207E1F7A2
:100070000E9470000C9479000C9400001F920F9263
:100080000FB60F9211248F939F9385B38F70893091
:1000900031F41092600085B3807F85BB0AC08091E7
:1000A00060008F5F8093600095B3907F8F70892B85
:1000B00085BB9F918F910F900FBE0F901F90189549
:1000C0008FB78F778FBF87B38B7F87BB8BB78062EC
:1000D0008BBF84B7806484BF8FB780688FBF08955B
:1000E00084B38F6084BB85B3807F85BB0E94600032
:0600F000FFCFF894FFCFE2
:00000001FF
