S00C00006D61696E2E7372656373
S11300000C942A000C943C000C943C000C943C008E
S11300100C943C000C943C000C943C000C943C006C
S11300200C943C000C943E000C943C000C943C005A
S11300300C943C000C943C000C943C000C943C004C
S11300400C943C000C943C000C943C000C943C003C
S11300500C943C0011241FBECFE5D4E0DEBFCDBF1D
S113006020E0A0E6B0E001C01D92A136B207E1F79E
S11300700E9463000C946F000C9400001F920F9276
S11300800FB60F9211248F939F93809160008F5F1E
S113009080936000823031F495B381E0892785BB79
S11300A01092600088B7816088BF9F918F910F90F4
S11300B00FBE0F901F90189512BE89B7816089BF3B
S11300C085E883BF089584B3816084BB85B38E7F44
S11300D085BB8FB780688FBF0E945C00FFCFF89408
S10500E0FFCF4C
S9030000FC
