S00B00004D43312E7372656358
S11300000C942A000C9434000C9434000C943400A6
S11300100C9434000C9434000C9434000C9434008C
S11300200C9434000C9434000C9434000C9434007C
S11300300C9434000C9434000C9434000C9434006C
S11300400C9434000C9434000C9434000C9434005C
S11300500C94340011241FBECFE5D4E0DEBFCDBF25
S11300600E946A000C948A000C9400008B3041F0CA
S11300708C3021F08A3029F48AE2089583E20895CD
S113008080E0089580E023C020E130E0082E02C023
S1130090220F331F0A94E2F72ABB20952BBB90E072
S11300A013C029B330E0092E02C0359527950A9470
S11300B0E2F720FD08C0292F220F920F890F8F5FCE
S11300C00E94360008959F5F943058F38F5F833009
S11300D0D8F2D8CF0E947C000E944200883010F4ED
S11300E00E9486002FE986E891E0215080409040EC
S11300F0E1F700C00000F0CF82E08BB988E18AB953
S113010086E880BD10BC8CE089B908955D9BFECF64
S10B01108CB90895F894FFCFA7
S9030000FC
